:020000040800F2
:1000000008080020C51E00084D0300084F03000823
:1000100053030008570300085B03000800000000BA
:100020000000000000000000000000005F03000866
:100030006103000800000000630300086503000876
:10004000DF1E0008DF1E0008DF1E0008DF1E00089C
:10005000DF1E0008DF1E0008DF1E0008DF1E00088C
:10006000DF1E0008DF1E0008DF1E0008DF1E00087C
:10007000DF1E0008DF1E0008DF1E0008DF1E00086C
:10008000DF1E0008DF1E0008DF1E0008DF1E00085C
:10009000DF1E0008DF1E0008DF1E0008DF1E00084C
:1000A000DF1E0008DF1E0008DF1E0008DF1E00083C
:1000B000DF1E0008DF1E0008DF1E0008DF1E00082C
:1000C000DF1E0008DF1E0008DF1E0008DF1E00081C
:1000D000DF1E0008391E0008DF1E0008DF1E0008B2
:1000E000DF1E0008DF1E0008DF1E0008DF1E0008FC
:1000F000DF1E0008DF1E0008DF1E0008DF1E0008EC
:10010000DF1E0008DF1E0008DF1E0008DF1E0008DB
:10011000DF1E0008DF1E0008DF1E0008DF1E0008CB
:10012000DF1E0008DF1E0008DF1E0008DF1E0008BB
:1001300000F002F800F042F80AA090E8000C8244B7
:100140008344AAF10107DA4501D100F037F8AFF294
:10015000090EBAE80F0013F0010F18BFFB1A43F0A5
:1001600001031847582E0000782E0000103A24BFD3
:1001700078C878C1FAD8520724BF30C830C144BF0C
:1001800004680C607047000000230024002500264E
:10019000103A28BF78C1FBD8520728BF30C148BFEA
:1001A0000B607047642902F00985732902F0B88555
:1001B000002070471FB51FBD10B510BD02F0E2FD55
:1001C0001146FFF7F7FF00F045F802F000FE03B418
:1001D000FFF7F2FF03BC01F0D5FD000010B500F001
:1001E000FAFF002826D001F067FA07281DD2DFE8C1
:1001F00000F01C0C1004081418002FA002F074FC6E
:1002000017E02EA002F070FC13E02EA002F06CFCB0
:100210000FE02EA002F068FC0BE02EA002F064FCC0
:1002200007E02EA002F060FC03E02DA002F05CFCD1
:1002300000BF00BF10BD10B500F087FD10B12AA0AF
:1002400002F052FC012000F067FF10B12DA002F077
:100250004BFC10BD00BF4FF4A06002F0D5FB01F0D5
:1002600029FD4FF4165001F09BFD00F06BF900F0F2
:1002700085F900F04FFBFFF7DEFF2C492CA002F0C0
:1002800033FC18E0012001F051FDC82C11D10024ED
:10029000294800682949C1F8B00129A002F024FCCE
:1002A0002548006808B9FFF799FF294625A002F004
:1002B0001BFC601CC4B2E5E755500000444F574E8C
:1002C000000000004C4546540000000052494748D9
:1002D000540000004E4541520000000046415200CB
:1002E0004E4F4E4500000000415044532D393936E1
:1002F0003020696E697469616C697A6174696F6EC6
:100300003B0D0A00415044532D3939363020676582
:1003100073747572652073656E736F7220697320D4
:1003200072756E6E696E67210D0A0000AC2F0008B1
:1003300025730D0A000000002001214200802142A7
:100340003132330025640D0A00000000704700BF01
:10035000FEE700BFFEE700BFFEE700BFFEE7704715
:1003600070477047704700000CB500200190009066
:100370006B48006840F480306949086000BF6848F5
:10038000006800F4003000900198401C0190009833
:1003900018B90198B0F5A06FF1D16148006810F468
:1003A000003F02D00120009001E000200090009862
:1003B000012842D15B48006840F0100059490860AC
:1003C0000846006820F0030008600846006840F016
:1003D0000200086052484068514948600846406839
:1003E00048600846406840F48060486008464068BD
:1003F00020F47C1048600846406840F4E8104860EB
:100400000846006840F08070086000BF44480068FB
:1004100010F0007FFAD04248406820F003004049C5
:1004200048600846406840F00200486000BF3C4811
:10043000406800F00C000828F9D10CBD10B5FFF79A
:1004400093FF10BD10B53648006840F001003449F4
:100450000860084640683449084031494860084609
:100460000068324908402E4908600846006820F4B8
:10047000802008600846406820F4FE0048604FF481
:100480001F008860FFF7DAFF4FF00060284908601E
:1004900010BD10B5002100200022214B5B6803F045
:1004A0000C0121B1042906D0082928D107E0214BED
:1004B000214C236027E01F4B1F4C236023E0184B87
:1004C0005B6803F47010164B5B6803F48032022300
:1004D00003EB904022B9194B4343174C23600DE0C6
:1004E0000F4B5B6813F4003F04D0144B4343124C92
:1004F000236003E00F4B43430F4C236003E00D4B9D
:100500000D4C236000BF00BF054B5B68C3F30313B2
:100510000B4CE15C084B1B68CB40074C236010BDC3
:1005200000100240002002400000FFF8FFFFF6FE2E
:1005300008ED00E000127A000000002000093D00F4
:100540000400002008B50121082001F0F1FF4FF45C
:100550008050ADF8000010208DF8030003208DF8C6
:1005600002006946044801F02DFD4FF48051024815
:1005700001F0D3FD08BD0000000C014008B50121C9
:10058000142001F0D5FF0121384801F0EAFD4FF4B5
:100590000040ADF8000048208DF80300694634485B
:1005A00001F010FD2020ADF8000048208DF8030078
:1005B0006946304801F006FD4FF48070ADF8000048
:1005C00028208DF803006946294801F0FBFC08BD8E
:1005D00010B5044614B10120274908702648007858
:1005E00068B32021234801F07EFD58B14FF400414B
:1005F0001F4801F078FD28B101211D4801F073FD6D
:1006000001281CD10A2001F091FB00201A49087032
:100610002021184801F067FD08B9012010BD4FF4F2
:100620000041134801F05FFD08B90220F6E70121FF
:100630000F4801F058FD012815D10320EEE72021D5
:100640000C4801F050FD01280DD1C103084801F00C
:100650004AFD012807D10121054801F044FD10B9E8
:100660000120054908700020D8E700000002300092
:1006700000080140001001401400002008B50121CD
:10068000042001F055FF4FF4C050ADF800001020D9
:100690008DF8030003208DF802006946974801F0A9
:1006A00091FC4FF48070ADF8000028208DF8030015
:1006B0006946924801F086FC012091490860914901
:1006C000C1F8AC0108BD10B58C48001D006820F4CD
:1006D00070408A49091D08600846006840F440508F
:1006E00008600120884908608649C1F8B0014FF0D0
:1006F000040001F0F8FA0020834908604FF004007C
:1007000001F0F1FA00207F49C1F8B00110BD10B529
:100710007A48001D006820F470407849091D08607F
:100720000846006840F440500860002074490860A2
:100730007449C1F8AC014FF0040001F0D4FA012073
:100740006F4908606F49C1F8AC014FF0040001F037
:10075000CAFA10BD10B500246848001D006820F4D6
:1007600070406649091D08600846006840F4004072
:10077000086001206449086001F0B5FA0120614970
:10078000C1F8B00101F0AFFA07E0601CC4B2FA2C66
:1007900003DDFFF7BCFF012010BD5C4800680028A6
:1007A000F3D15749086000BFF6E710B5002054495F
:1007B00008605748006820F47040554908600846B2
:1007C000006840F4405008604FF000004D49C1F807
:1007D000AC014FF0020001F086FA012048490860A0
:1007E0004FF0020001F07FFA00204649C1F8B00145
:1007F00010BD10B50020424908604548006820F44B
:100800007040434908600846006840F44050086062
:100810004FF001003B49C1F8AC014FF0020001F07C
:1008200062FA0120364908604FF0020001F05BFADD
:1008300000203449C1F8B00110BD70B504463448F9
:10084000006820F47040324908600846006840F4AF
:100850004050086000202A49086005461AE0E00977
:10086000294908604FEA44604FEA10644FF00200E3
:1008700001F039FA01202349C1F8B001022001F04A
:1008800032FA00201E4908604FF0020001F02BFAF6
:10089000681CC5B2082DE2DB70BD70B505460024AA
:1008A0001B48006820F47040194908600846006839
:1008B00040F400400860002616E00020104908605F
:1008C0004FF0020001F00FFA01200E49C1F8B0010B
:1008D0006006040E0D48006808B1601CC4B2012017
:1008E00001F001FA701CC6B2082EE6DB15B9FFF75D
:1008F00080FF01E0FFF759FF204670BD000801406E
:10090000B001214200002142AC0121422C012142D0
:100910000408014010B5FFF7B1FE10BD70B50446E4
:100920000025FFF7D0FE7220FFF787FFFFF712FFC9
:10093000E0B2FFF782FFFFF70DFFFFF7C4FE732061
:10094000FFF77BFFFFF706FF0020FFF7A6FF054636
:10095000FFF7DDFE284670BD70B504460D46FFF773
:10096000B2FE7220FFF769FFFFF7F4FEE0B2FFF777
:1009700064FFFFF7EFFE2846FFF75FFFFFF7EAFE91
:10098000FFF7C5FE0A2001F0D1F970BD2DE9F04155
:1009900005460E461746002409E0E20026FA02F258
:1009A000D1B22A1990B2FFF7D7FF601CC4B2BC4283
:1009B000F3DBBDE8F0812DE9F04107460C46002647
:1009C000002509E036023919491B491E88B2FFF794
:1009D000A5FF0644681CC5B2A542F3DB3046BDE85E
:1009E000F08110B5FF20FFF799FF0446552C01D187
:1009F000002010BD5521FF20FFF7AEFFFF20FFF7BD
:100A00008DFF0446552C01D10020F2E70120F0E7CC
:100A100070B506460C46154608E03046721C96B284
:100A2000FFF77CFF04F8010B681E85B2002DF4D19E
:100A300070BD70B505460C46164606E0217828467E
:100A4000FFF78AFF681C85B2641C3000A6F1010123
:100A50008EB2F3D170BD000010B5FAA002F044F8D8
:100A6000F9A002F041F810BD70B504460D462946C4
:100A70002046FFF771FF012070BD70B505460C469A
:100A80002846FFF74BFF2070012070BD38B50446A3
:100A90006946AB20FFF7F1FF08B9002038BD04F02C
:100AA000010464009DF8000000F0FD0000909DF836
:100AB0000000204300909DF80010AB20FFF7D4FF0A
:100AC00008B90020EAE70120E8E738B5044669469E
:100AD000A320FFF7D2FF08B9002038BD04F00704B7
:100AE0009DF8000000F0F80000909DF80000204301
:100AF00000909DF80010A320FFF7B6FF08B9002072
:100B0000EBE70120E9E738B504466946A320FFF783
:100B1000B4FF08B9002038BD04F00304E4009DF8D8
:100B2000000000F0E70000909DF8000020430090D6
:100B30009DF80010A320FFF797FF08B90020EAE70F
:100B40000120E8E738B504466946A320FFF795FF82
:100B500008B9002038BD04F0030464019DF80000CA
:100B600000F09F0000909DF80000204300909DF849
:100B70000010A320FFF778FF08B90020EAE7012062
:100B8000E8E710B504462146A120FFF76DFF08B93C
:100B9000002010BD0120FCE710B504462146A0202E
:100BA000FFF762FF08B9002010BD0120FCE770B517
:100BB0000446E5B2260A29468620FFF755FF08B904
:100BC000002070BD31468720FFF74EFF08B9002096
:100BD000F7E70120F5E770B50446E5B2260A294695
:100BE0008420FFF741FF08B9002070BD3146852001
:100BF000FFF73AFF08B90020F7E70120F5E710B545
:100C0000044621468B20FFF72FFF08B9002010BDB6
:100C10000120FCE710B5044621468920FFF724FF98
:100C200008B9002010BD0120FCE738B5044669462C
:100C30008F20FFF722FF08B9002038BD04F003041D
:100C40009DF8000000F0FC0000909DF8000020439B
:100C500000909DF800108F20FFF706FF08B90020D4
:100C6000EBE70120E9E738B5044669468F20FFF736
:100C700004FF08B9002038BD04F00304A4009DF867
:100C8000000000F0F30000909DF800002043009069
:100C90009DF800108F20FFF7E7FE08B90020EAE773
:100CA0000120E8E738B5044669468F20FFF7E5FEE6
:100CB00008B9002038BD04F00304A4019DF8000029
:100CC00000F03F0000909DF80000204300909DF848
:100CD00000108F20FFF7C8FE08B90020EAE70120C6
:100CE000E8E708B569468020FFF7C7FE08B9FF208E
:100CF00008BD9DF80000FBE770B504460D46FFF700
:100D0000F0FF0646FF2E01D1002070BD05F0010561
:100D1000002C0BDB062C09DC25B10120A040304360
:100D2000C6B209E00120A040864305E0072C03D1AC
:100D30000DB17F2600E0002631468020FFF794FEAB
:100D400008B90020E1E70120DFE708B569469220F5
:100D5000FFF793FE08B9002008BD9DF80000AB28FE
:100D600005D09DF800009C2801D00020F4E7002168
:100D70000720FFF7C1FF08B90020EDE7DB21812044
:100D8000FFF772FE08B90020E6E7F6218320FFF79F
:100D90006BFE08B90020DFE787218E20FFF764FE95
:100DA00008B90020D8E700219D20FFF75DFE08B9B3
:100DB0000020D1E700219E20FFF756FE08B9002051
:100DC000CAE760218D20FFF74FFE08B90020C3E776
:100DD0000020FFF767FF08B90020BDE70220FFF7FA
:100DE00042FF08B90020B7E70120FFF71EFF08B94E
:100DF0000020B1E70020FFF70DFF08B90020ABE7A6
:100E00003220FFF7FCFE08B90020A5E74FF6FF707F
:100E1000FFF7E1FE08B900209EE70020FFF7C7FEBC
:100E200008B9002098E711218C20FFF71DFE08B9B2
:100E3000002091E701219020FFF716FE30B9002035
:100E40008AE70000000000000D0A000000219F203A
:100E5000FFF70AFE08B900207EE72820FFF79CFE76
:100E600008B9002078E71E20FFF78BFE08B90020A4
:100E700072E74021A220FFF7F7FD08B900206BE7D9
:100E80000220FFF75FFE08B9002065E70020FFF7AA
:100E90003AFE08B900205FE70120FFF716FE08B907
:100EA000002059E70021A420FFF7DEFD08B900204B
:100EB00052E70021A520FFF7D7FD08B900204BE736
:100EC0000021A720FFF7D0FD08B9002044E700214A
:100ED000A920FFF7C9FD08B900203DE7C921A620D8
:100EE000FFF7C2FD08B9002036E70021AA20FFF76E
:100EF000BBFD08B900202FE70020FFF7C7FD08B9A8
:100F0000002029E7012027E710B501210020FFF785
:100F1000F3FE08B9002010BD0120FCE738B50446F7
:100F200069468020FFF7A9FD08B9002038BD04F00C
:100F3000010424019DF8000000F0EF0000909DF8EE
:100F40000000204300909DF800108020FFF78CFDEA
:100F500008B90020EAE70120E8E710B504460120BF
:100F6000FFF763FE08B9002010BD2CB10120FFF788
:100F7000D5FF38B90020F7E70020FFF7CFFF08B909
:100F80000020F1E7FFF7C0FF08B90020ECE70121DE
:100F90000846FFF7B1FE08B90020E5E70120E3E7C6
:100FA00010B50020FFF7BAFF08B9002010BD0021DE
:100FB0000120FFF7A1FE08B90020F7E70120F5E7BF
:100FC00038B5044669468020FFF757FD08B9002070
:100FD00038BD04F0010464019DF8000000F0DF005A
:100FE00000909DF80000204300909DF800108020A4
:100FF000FFF73AFD08B90020EAE70120E8E710B55D
:1010000004460220FFF72FFE08B9002010BD002083
:10101000FFF748FE08B90020F8E72CB10120FFF7E0
:10102000CFFF38B90020F1E70020FFF7C9FF08B96A
:101030000020EBE7FFF768FF08B90020E6E7012191
:101040000220FFF759FE08B90020DFE70120DDE7A5
:1010500010B50020FFF7B4FF08B9002010BD002133
:101060000220FFF749FE08B90020F7E70120F5E765
:1010700038B504466946AB20FFF7FFFC08B90020ED
:1010800038BD04F001049DF8000000F0FE0000905F
:101090009DF80000204300909DF80010AB20FFF762
:1010A000E3FC08B90020EBE70120E9E738B5044686
:1010B00069469020FFF7E1FC08B9002038BD04F034
:1010C000030424019DF8000000F0CF0000909DF87B
:1010D0000000204300909DF800109020FFF7C4FC12
:1010E00008B90020EAE70120E8E70020FE4981F87E
:1010F000800081F88100FD490860FD490860FD49D4
:101100000860FD490860FD490860FD490860FD4927
:101110000860FD490860704710B50446FFF7E5FF19
:10112000FF218320FFF7A0FC08B9002010BD892112
:101130008E20FFF799FC08B90020F7E70320FFF79E
:10114000B5FF08B90020F1E72CB10120FFF79EFCA4
:1011500038B90020EAE70020FFF798FC08B9002022
:10116000E4E70120FFF784FF08B90020DEE7FFF77E
:10117000CBFE08B90020D9E701210320FFF7BCFD11
:1011800008B90020D2E701210220FFF7B5FD08B918
:101190000020CBE701210620FFF7AEFD08B90020B3
:1011A000C4E70120C2E710B5FFF79FFF0020FFF75B
:1011B0006DFC08B9002010BD0020FFF759FF08B9E9
:1011C0000020F8E700210620FFF796FD08B900206F
:1011D000F1E70120EFE708B56946AF20FFF74DFCC6
:1011E00008B9012008BD9DF8000000F00100009042
:1011F0009DF80000012800D1F4E70020F2E72DE976
:10120000F047C0480068012805D10520BE490860A4
:101210000120BDE8F087BB480068022804D1062001
:10122000B94908600120F4E7B2480068401C06D1C3
:10123000B148006818B90320B3490860BAE0AD4866
:101240000068012806D1AC48006818B90420AE49EE
:101250000860AFE0A748006838B9A74800680128CF
:1012600003D10220A8490860A4E0A248006838B968
:10127000A1480068401C03D10120A349086099E0FF
:101280009C480068401C21D19B48006801281DD162
:101290009748006801F0B2FD064601F0CBFC044619
:1012A0000D469248006801F0A9FD064601F0C2FC17
:1012B000804622462B4601F043FE03D2032092498A
:1012C000086077E002209049086073E08948006870
:1012D000012821D188480068401C1DD1844800683D
:1012E00001F08CFD064601F0A5FC04460D467F4842
:1012F000006801F083FD064601F09CFC8046224612
:101300002B4601F01DFE03D204207F49086051E006
:1013100001207D4908604DE076480068401C21D1DD
:1013200075480068401C1DD17148006801F066FDD9
:10133000064601F07FFC04460D466C48006801F04B
:101340005DFD064601F076FC804622462B4601F004
:10135000F7FD03D203206C4908602BE001206A49A5
:10136000086027E063480068012821D162480068CE
:1013700001281DD15E48006801F040FD064601F0DD
:1013800059FC04460D465948006801F037FD0646F1
:1013900001F050FC804622462B4601F0D1FD03D2DD
:1013A00004205949086005E002205749086001E01F
:1013B00000202EE701202CE72DE9F04F8BB000270D
:1013C000B846B946BA46BB4600200A900990089034
:1013D000454890F88100042803DC00200BB0BDE8EC
:1013E000F08F414890F88100202863DC3E4890F857
:1013F000810000285EDD00241FE03B48005D0A28D4
:101400001ADD39482030005D0A2815DD36484030A5
:10141000005D0A2810DD34486030005D0A280BDDCD
:101420003148075D203010F80480203010F8049017
:10143000203010F804A005E0641C2B4890F88100CF
:10144000A042DADC00BF47B1B8F1000F05D0B9F116
:10145000000F02D0BAF1000F01D10020BEE72248F0
:1014600090F88100441E22E01F48005D0A281DDD1F
:101470001D482030005D0A2818DD1B484030005D03
:101480000A2813DD18486030005D0A280EDD164872
:1014900010F804B02030005D0A9013484030005D21
:1014A000099011486030005D089002E0641E002C35
:1014B000DADA00BFA7EB08006421484307EB080114
:1014C00090FBF1F10791A9EB0A006421484309EB75
:1014D0000A0190FBF1F106910A98ABEB0001642040
:1014E00041430A98584411E0580000201800002099
:1014F0001C000020200000202400002028000020E4
:101500002C000020300000203400002091FBF0F07F
:101510000590DDE90810401A64214843DDE90821FF
:10152000114490FBF1F0049007990598451A06992B
:101530000498461AF94800682844F8490860F848B1
:1015400000683044F6490860F4480068322803DB3C
:101550000120F44908600CE0F048006810F1320FF7
:1015600004DC4FF0FF30EF49086002E00020ED4955
:101570000860EB480068322803DB0120EA49086074
:101580000CE0E748006810F1320F04DC4FF0FF3048
:10159000E549086002E00020E3490860E14800688E
:1015A000D8BBE1480068C0BB284601F027FCCDE964
:1015B000000101F03FFB0022DC4BCDE9020101F00C
:1015C00035FC62D2304601F019FCCDE9000101F092
:1015D00031FB0022D54BCDE9020101F027FC54D2AA
:1015E00035B92EB9D2480068401CD149086006E0E0
:1015F00005B926B1CF480068401CCE490860CC48E8
:1016000000680A2841DBCB48006802283DDB2DB981
:1016100026B90120C849086005E006E01DB116B1F1
:101620000220C54908600120D8E6284601F0E6FB03
:10163000CDE9000101F0FEFA0022BC4BCDE9020128
:1016400001F0F4FB21D2304601F0D8FBCDE90001D6
:1016500001F0F0FA0022B54BCDE9020101F0E6FB02
:1016600013D22DB926B9B2480068401CB0490860B1
:10167000AF4800680A2808DB0020AA490860AA4988
:101680000860A6490860A64908600020A6E62DE982
:10169000F04106460D461446274607E03046721CC8
:1016A000D6B2FFF73BF905F8010B641E002CF5D10B
:1016B0003C462046BDE8F08170B5A2B000202190E4
:1016C0000025FFF788FD20B1FFF70BFB10F0410F5D
:1016D00002D1002022B070BD6FE01E2000F026FB7A
:1016E0006946AF20FFF7C9F908B9FF20F2E79DF876
:1016F000000010F0010F55D021A9AE20FFF7BDF971
:1017000008B9FF20E6E79DF88400002855DD9DF824
:101710008400820001A9FC20FFF7B9FFC5B2681C54
:1017200001D1FF20D6E7042D47DB00242CE001A8DF
:10173000005D824991F88010804A505401A9601CD4
:10174000095C104690F880202030815401A9A01C2B
:10175000095C7A4890F880204030815401A9E01C4F
:10176000095C764890F8802060308154603890F8A9
:101770008000401C714981F88000084690F8810083
:10178000401C81F88100241DAC42D0DBFFF714FE21
:1017900008B1FFF734FD0020684981F8800081F826
:1017A00081000AE01E2000F0C1FAFFF728FD64481E
:1017B0000668FFF79AFC30468CE78EE710B50021EB
:1017C0000846FFF799FA08B9002010BD0120FCE790
:1017D00038B504460020208069469420FFF74DF973
:1017E00008B9002038BD9DF800002080694695208A
:1017F000FFF743F908B90020F4E720889DF80010AE
:1018000000EB012020800120ECE738B504460020E1
:10181000208069469620FFF730F908B9002038BDCE
:101820009DF80000208069469720FFF726F908B947
:101830000020F4E720889DF8001000EB01202080B4
:101840000120ECE738B50446002020806946982046
:10185000FFF713F908B9002038BD9DF8000020807B
:1018600069469920FFF709F908B90020F4E72088B4
:101870009DF8001000EB012020800120ECE738B536
:1018800004460020208069469A20FFF7F6F808B940
:10189000002038BD9DF80000208069469B20FFF79E
:1018A000ECF808B90020F4E720889DF8001000EB60
:1018B000012020800120ECE710B5044600202070B4
:1018C00021469C20FFF7D9F808B9002010BD01205F
:1018D000FCE708B569468920FFF7CFF808B9002072
:1018E00000909DF8000008BD08B569468B20FFF701
:1018F000C4F808B9002000909DF8000008BD08B5A4
:1019000069468F20FFF7B9F808B9FF2008BD9DF898
:101910000000800900909DF80000F7E71800002003
:101920001C00002020000020240000200000344083
:10193000280000202C00002030000020580000204B
:101940003400002008B569468F20FFF796F808B9E3
:10195000FF2008BD9DF80000C0F3810000909DF8B5
:101960000000F6E708B569468F20FFF786F808B94A
:10197000FF2008BD9DF8000000F0030000909DF8D6
:101980000000F6E708B569469020FFF776F808B939
:10199000FF2008BD9DF80000C0F3011000909DF8E5
:1019A0000000F6E708B569469F20FFF766F808B91A
:1019B000FF2008BD9DF80000C0F3401000909DF886
:1019C0000000F6E738B5044669469F20FFF755F852
:1019D00008B9002038BD04F0010464019DF800003E
:1019E00000F0DF0000909DF80000204300909DF87B
:1019F00000109F20FFF738F808B90020EAE701201F
:101A0000E8E708B569469F20FFF737F808B9FF20D7
:101A100008BD9DF8000000F00F0000909DF8000048
:101A2000F6E738B5044669469F20FFF726F808B95F
:101A3000002038BD04F00F049DF8000000F0F00015
:101A400000909DF80000204300909DF800109F201A
:101A5000FFF70AF808B90020EBE70120E9E708B52D
:101A60006946A020FFF709F808B9002000909DF80A
:101A7000000008BD08B56946A120FEF7FEFF08B9C1
:101A8000002000909DF8000008BD08B56946A3201D
:101A9000FEF7F3FF08B9FF2008BD9DF80000C0F372
:101AA000411000909DF80000F6E708B56946A320B4
:101AB000FEF7E3FF08B9FF2008BD9DF80000C0F362
:101AC000C10000909DF80000F6E708B56946A32024
:101AD000FEF7D3FF08B9FF2008BD9DF8000000F015
:101AE000070000909DF80000F6E738B50446002096
:101AF000208069468420FEF7C0FF08B9002038BD69
:101B00009DF80000208069468520FEF7B6FF08B9E1
:101B10000020F4E720889DF8001000EB01202080D1
:101B20000120ECE738B50446002020806946862075
:101B3000FEF7A3FF08B9002038BD9DF80000208003
:101B400069468720FEF799FF08B90020F4E720884E
:101B50009DF8001000EB012020800120ECE710B57B
:101B600004460020207021468920FEF786FF08B930
:101B7000002010BD0120FCE710B504462146892055
:101B8000FEF772FF08B9002010BD0120FCE710B578
:101B900004460020207021468B20FEF76EFF08B916
:101BA000002010BD0120FCE710B5044621468B2023
:101BB000FEF75AFF08B9002010BD0120FCE708B568
:101BC00069468020FEF759FF08B9FF2008BD9DF83F
:101BD0000000C0F3001000909DF80000F6E708B583
:101BE00069468020FEF749FF08B9FF2008BD9DF82F
:101BF0000000C0F3401000909DF80000F6E708B523
:101C00006946AB20FEF739FF08B9FF2008BD9DF8F3
:101C10000000C0F3400000909DF80000F6E708B512
:101C20006946E720FEF729FF08B9002008BD01201A
:101C3000FCE708B56946E520FEF71FFF08B900205C
:101C400008BD0120FCE708B56946AB20FEF715FF8B
:101C500008B9FF2008BD9DF8000000F001000090C9
:101C60009DF80000F6E710B50446FEF72CFD722043
:101C7000FEF7E3FDFEF76EFD2046FEF7DEFDFEF704
:101C800069FD08B1002010BDFEF741FD0120FAE713
:101C900070B505460C46164606E021782846FEF744
:101CA0005BFE681CC5B2641C3000A6F10106F4D1CD
:101CB000012070BD10B56FF0040000F0F5FE2D4856
:101CC00000682D49B0FBF1F02C49087008460078F7
:101CD00000EB4001C1EBC0104FF6FF7101EAC000FC
:101CE0002749088010BD0146244A12784A434FF024
:101CF000E0235A6100229A611A46126942F00102F9
:101D00001A6100BF4FF0E022106910F0010F02D0FD
:101D100010F4803FF6D04FF0E022126922F0010269
:101D20004FF0E0231A6100229A6170470146144A7D
:101D300012884A434FF0E0235A6100229A611A4602
:101D4000126942F001021A6100BF4FF0E0221069EF
:101D500010F0010F02D010F4803FF6D04FF0E022D7
:101D6000126922F001024FF0E0231A6100229A6109
:101D7000704700000000002000127A0038000020A8
:101D80003A000020014600BF704700BF494A128850
:101D900012F0400FFAD0C2B2464B1B1D1A8070479A
:101DA00010B586B00446012144F2040000F0C0FBE7
:101DB0004FF40070ADF8140003208DF816001820C1
:101DC0008DF8170005A93C4800F0FCF84FF480603E
:101DD000ADF8140004208DF8170005A9364800F06E
:101DE000F1F825208DF8000003208DF801008DF812
:101DF000020001208DF80300684600F00AFE0194FD
:101E00000020ADF80800ADF80A00ADF80C00ADF800
:101E100010000C20ADF80E0001A9264800F033FC9C
:101E2000012240F22551234800F0C5FC0121214840
:101E300000F0B5FC06B010BD10B540F225511D48AC
:101E400000F09EFD10B31B4800F01AFDC4B21B4801
:101E5000008810F4004F2BD11848008810F4804FF0
:101E60000CD00A2C03D000201449088020E013482D
:101E7000008840F400401149088019E00D2C06D17B
:101E80000E48008840F480400C49088010E00B4860
:101E90000088C0F30D000A490C5408480088401C13
:101EA0000649088008460088C72801DD0020088010
:101EB00010BD000000380140000801403C00002037
:101EC000DC0000200948804709480047FEE7FEE79C
:101ED000FEE7FEE7FEE7FEE7FEE7FEE7FEE7FEE7DA
:101EE00004480549054A064B7047000045040008B0
:101EF0003101000808020020080800200804002022
:101F00000804002010B50446CA48844208D10121C3
:101F1000042000F027FB0021042000F023FB46E012
:101F2000C548844208D10121082000F01BFB002194
:101F3000082000F017FB3AE0C048844208D1012194
:101F4000102000F00FFB0021102000F00BFB2EE012
:101F5000BB48844208D10121202000F003FB00216E
:101F6000202000F0FFFA22E0B648844208D1012187
:101F7000402000F0F7FA0021402000F0F3FA16E0CC
:101F8000B148844208D10121802000F0EBFA002101
:101F9000802000F0E7FA0AE0AC48844207D1012132
:101FA000801500F0DFFA0021A01500F0DBFA10BD6B
:101FB00010B50121084600F0D5FA0021012000F0FB
:101FC000D1FA10BD2DE9F04102460025002600207F
:101FD00000230024002791F803C00CF00F0591F8AE
:101FE00003C01CF0100F03D091F802C04CEA0505A5
:101FF00091F800C0BCF1000F31D0146800202BE034
:102000004FF0010C0CFA00F3B1F800C00CEA030623
:102010009E4220D183004FF00F0C0CFA03F7BC4313
:1020200005FA03FC4CEA040491F803C0BCF1280F44
:1020300006D14FF0010C0CFA00FCC2F814C00AE003
:1020400091F803C0BCF1480F05D14FF0010C0CFA18
:1020500000FCC2F810C0401C0828D1D31460B1F8AD
:1020600000C0BCF1FF0F34DD546800202EE000F109
:10207000080C4FF0010808FA0CF3B1F800C00CEAA4
:1020800003069E4221D183004FF00F0C0CFA03F798
:10209000BC4305FA03FC4CEA040491F803C0BCF10C
:1020A000280F05D100F1080C08FA0CF8C2F81480CA
:1020B00091F803C0BCF1480F07D100F1080C4FF0B4
:1020C000010808FA0CF8C2F81080401C0828CED38A
:1020D0005460BDE8F0814FF6FF71018002218170EC
:1020E0000421C17070470246002093680B4201D062
:1020F000012000E0002070470146886880B27047E8
:1021000002460020D3680B4201D0012000E00020ED
:1021100070470146C86880B27047016170474161ED
:1021200070470AB1016100E041617047C1607047CA
:102130004FF480320A4382618161826182698269DF
:10214000704702460020424B18684FF680731840D3
:1021500040EA021008433E4B186070473D49C86191
:102160007047F0B50A46002300240021002500F046
:102170000046B6F1004F02D1354EF16901E0344E10
:102180007168C0F3034583B200F44016B6F5401FF2
:1021900008D121F070612E4E766826F070662C4FC3
:1021A0007E6012E000F48016B6F5801F06D103268B
:1021B00006FA05F4A14341F0706106E0460D3601D0
:1021C00003FA06F6B14341F0706122B1460D3601C3
:1021D00003FA06F6314300F00046B6F1004F02D193
:1021E0001B4EF16101E01A4E7160F0BD30B5002266
:1021F0008B071C0F0F2303FA04F2154B08338C10C6
:1022000053F824309343124C08348D1044F8253091
:1022100023468C1053F824308C07240F00FA04F462
:1022200023430B4C08348D1044F8253030BD0A4947
:102230000860704700080140000C01400010014098
:102240000014014000180140001C01400020014022
:102250000000014000002042DC002042DD48006810
:1022600040F00100DB49086008464068DA49084050
:10227000D849486008460068D8490840D5490860F0
:102280000846006820F4802008600846406820F472
:10229000FE0048604FF41F0088607047CD49096810
:1022A00021F48031CB4A11601146096821F4802164
:1022B0001160B0F5803F03D0B0F5802F0ED106E05D
:1022C000C449096841F48031C24A116007E0C1493C
:1022D000096841F4A021BF4A116000E000BF00BFBF
:1022E000704710B501460022002300204A11012A40
:1022F00002D1B84C236806E0022A02D1B54C236A09
:1023000001E0B44C636A01F01F02012494401C42B6
:1023100001D0012000E0002010BD38B50020009061
:102320000024002500BF3120FFF7DBFF05460098A1
:10233000401C00900098B0F5A06F01D0002DF2D0A5
:102340003120FFF7CEFF08B1012400E00024204631
:1023500038BD014600209F4A106820F0F80040EA8E
:10236000C100106070479E49086070470246002017
:10237000984B586820F47C1042EA01031843954BAF
:102380005860704796490866704701460020914A98
:10239000506820F003000843506070478D48406843
:1023A00000F00C007047014600208A4A506820F077
:1023B000F00008435060704701460020854A50688D
:1023C00020F4E06008435060704701460020814AD5
:1023D000506820F4605040EAC1005060704729B155
:1023E0007C4A527A02437B4B5A7204E0794A527A11
:1023F0008243784B5A7270477A49086070470146A9
:102400000020744A506820F44040084350607047F0
:102410000021754A11706F4A82F82010012802D0FD
:10242000042808D103E001216F4A117004E005215E
:102430006D4A117000E000BF00BF70476B49086033
:1024400070476449096A0143624A116270476749EB
:1024500044390860704730B5002100220024002371
:102460005C4D6D6805F00C0121B1042905D00829E7
:1024700023D105E05E4D056022E05D4D05601FE063
:10248000544D6D6805F47012524D6D6805F480343A
:10249000022505EB92421CB9564D554305600BE0F1
:1024A0004C4D6D6815F4003F03D0524D5543056007
:1024B00002E04F4D5543056002E04D4D056000BF01
:1024C00000BF444D6D6805F0F00109094A4D6B5C91
:1024D0000568DD4045603F4D6D6805F4E061090A1F
:1024E000454D6B5C4568DD4085603A4D6D6805F48F
:1024F0006051C90A404D6B5C4568DD40C560354D93
:102500006D6805F44041890B3C4D6B5CC568B5FBBB
:10251000F3F5056130BD29B12E4A526902432D4BB6
:102520005A6104E02B4A526982432A4B5A61704730
:1025300029B1284A92690243264B9A6104E0254A50
:1025400092698243234B9A61704729B1214AD2692B
:102550000243204BDA6104E01E4AD26982431D4BDC
:10256000DA61704729B11B4AD2680243194BDA601D
:1025700004E0184AD2688243164BDA60704729B1EA
:10258000144A12690243134B1A6104E0114A12699A
:102590008243104B1A6170471449403908607047F4
:1025A0000F49C86470470B49C87170470948406AB1
:1025B00040F0807007494862704701460020054A94
:1025C00092680A4201D0012000E0002070470149D2
:1025D00088727047001002400000FFF8FFFFF6FE0F
:1025E00000004242D8004242201002408004424291
:1025F00000127A0000093D00440000205400002031
:1026000010B50446FB48844209D101218803FFF735
:10261000A9FF00214FF48040FFF7A4FF32E0F64805
:10262000844209D101214804FFF7A9FF00214FF49A
:102630000030FFF7A4FF25E0F048844209D10121D2
:102640008804FFF79CFF00214FF48020FFF797FFDD
:1026500018E0EB48844209D10121C804FFF78FFF3D
:1026600000214FF40020FFF78AFF0BE0E548844289
:1026700008D101210805FFF782FF00214FF48010E7
:10268000FFF77DFF10BD2DE9F04786B005460E46E9
:102690000024A24600BFA1460027B08900B100BFB8
:1026A0002F462C8A4CF6FF700440F08804432C829D
:1026B000AC894EF6F3100440B08831890843718923
:1026C00008430443AC81AC8A4FF6FF400440B08914
:1026D0000443AC8201A8FFF7BEFEC648874202D180
:1026E000DDF810A001E0DDF80CA0A88910F4004F7F
:1026F00008D00AEBCA0000EB0A1031684900B0FBB1
:10270000F1F807E00AEBCA0000EB0A103168890013
:10271000B0FBF1F86420B8FBF0F00401200964215B
:1027200001FB1089A88910F4004F08D0322000EB7B
:10273000C900B0FBF1F000F00700044308E03220CC
:1027400000EB09106421B0FBF1F000F00F0004432E
:102750002C8106B0BDE8F0874FF4165101600021CE
:102760008180C18001810C214181002181817047DC
:1027700010B502460020108A4FF2FF0318400B8864
:102780004C8823438C882343CC88234318431082EE
:1027900010BD0021018041808180C180704721B13E
:1027A000828942F40052828104E082894DF6FF73EF
:1027B0001A4082817047F0B50346002400260025A8
:1027C0000020A1F510676A3F00D100BF1846C1F391
:1027D000421401F01F06012707FA06F5012C01D16A
:1027E0000C3004E0022C01D1103000E014301AB19A
:1027F00007682F43076002E00768AF430760F0BD3A
:102800001AB1838A0B43838202E0838A8B438382DB
:102810007047028A4FF6F0731A400282028A0A4316
:102820000282704782894FF2FF731A408281828947
:102830000A438281704721B1828942F0020282817B
:1028400004E082894FF6FD731A4082817047028A44
:102850004FF6DF731A400282028A0A4302827047EF
:1028600021B1028A42F48042028204E0028A4BF6DD
:10287000FF731A4002827047C1F3080282807047DA
:1028800001468888C0F308007047818941F0010142
:1028900081817047028BD2B20283028B42EA01220D
:1028A00002837047028B02F47F420283028B0A4349
:1028B0000283704721B1828A42F02002828204E0C2
:1028C000828A4FF6DF731A408282704721B1828A72
:1028D00042F01002828204E0828A4FF6EF731A40BF
:1028E0008282704721B1828A42F00802828204E02B
:1028F000828A4FF6F7731A408282704721B182892B
:1029000042F40042828103E08289C2F30E02828196
:10291000704721B1828A42F40062828204E0828A96
:102920004FF2FF731A4082827047828A4FF6FB7320
:102930001A408282828A0A438282704721B1828A47
:1029400042F00202828204E0828A4FF6FD731A404E
:102950008282704702460020B1F5007F00D100BF9F
:1029600013880B4201D0012000E00020704701F4E1
:102970000072B2F5007F00D100BFCA4302807047E9
:1029800070B502460024002300250020A1F5106642
:102990006A3E00D100BFC1F3421501F01F030126BA
:1029A00006FA03F3012D02D19689334006E0022D89
:1029B00002D1168A334001E0968A33400C12012678
:1029C00006FA04F41688344013B10CB1012000E07B
:1029D000002070BD10B500220023A1F510646A3CF0
:1029E00000D100BF0A1201249440A3B2DC4304804A
:1029F00010BD000000380140004400400048004085
:102A0000004C00400050004031490143314A116000
:102A1000704770B5002100230F22C4780CB32D4CF1
:102A2000246804F4E064C4F5E064210AC1F10403FD
:102A3000CA40447804FA03F1847814402143090120
:102A4000254C0678A155047804F01F050124AC40FC
:102A500005786D114FF0E02606EB8505C5F80041BD
:102A600009E0047804F01F050124AC401B4D0678F2
:102A7000761145F8264070BD194A0A400243154BAD
:102A80001B1F1A60704739B1124A121D12680243A7
:102A9000104B1B1D1A6006E00E4A121D126882437D
:102AA0000C4B1B1D1A607047042808D14FF0E02121
:102AB000096941F004014FF0E022116107E04FF095
:102AC000E021096921F004014FF0E0221161704713
:102AD0000000FA050CED00E000E400E080E100E019
:102AE00080FFFF1F704700000FB4044910B503AA10
:102AF000029800F019F910BC5DF814FB40000020AA
:102B00002DE9F0410E460446002020622046E1688F
:102B1000884730B3252805D0D4E901219047206AA1
:102B2000401CF2E7E168204600278847050018D0DE
:102B3000A5F14100192802D820354FF4006732462C
:102B4000294620462760FDF72DFB40B1012804D01F
:102B5000F61D26F007060836D8E7361DD6E72846C4
:102B6000DAE7206ABDE8F08170B50C460546012A17
:102B700005D02878800600D5EA69002302E0012309
:102B800005E05B1C934202D2E05C0028F9D1A86901
:102B9000E618C01AA861286A184428622846AFF3CC
:102BA000008004E0D5E9012114F8010B9047B442FC
:102BB000F8D32846AFF3008070BD00002DE9F04146
:102BC0000646002410687529314616A511D0AFF3CA
:102BD0000080002803DAC0F1000013A507E0316887
:102BE0008A0701D511A502E0490704D510A50124E3
:102BF00001E0AFF3008000210A2306F1240707E07B
:102C0000B0FBF3F203FB1200303078541046491C3D
:102C10000028F5D123462A463046BDE8F04100F0B1
:102C200011B80000000000002D0000002B00000083
:102C300020000000002800DA4042704770477047CB
:102C4000704770472DE9F0470D4699469246044675
:102C500000F124080168880604D5E06921F010011C
:102C6000216000E00120A84202DDA0EB050700E0A2
:102C70000027A16907EB050202EB0900A1EB0000A8
:102C8000A0612078C00602D42046AFF30080002661
:102C900008E0D4E901211AF806009047206A401C98
:102CA000761C20624E45F4DB2078C0060AD520460B
:102CB000AFF3008006E0D4E9012130209047206A7C
:102CC000401C2062381EA7F10107F4DC07E0D4E9BC
:102CD000012118F805009047206A401C2062281E38
:102CE000A5F10105F3DC2046AFF300802078000653
:102CF00002D50220BDE8F0870120FBE710B543694B
:102D000013B1AFF3008001E0FFF72EFF012010BDEB
:102D1000127800F124010A7000224A700122EDE7C6
:102D200011684FF0FF32E9E7074B70B50D467B4461
:102D300000F011F80446284600F020F810B14FF0DA
:102D4000FF3070BD204670BD59F0FFFF01694A1C7D
:102D500002610878704700B58FB0CDE901310021DC
:102D6000059105497944CDE9031011466846FFF7FE
:102D7000C7FE0FB000BD0000E5FFFFFF007B00F0C5
:102D800080007047754600F029F8AE460500694698
:102D9000534620F00700854618B020B5FFF7A0F88D
:102DA000BDE820404FF000064FF000074FF000084C
:102DB0004FF0000B21F00701AC46ACE8C009ACE8CD
:102DC000C009ACE8C009ACE8C0098D4670470446AC
:102DD000AFF300802046FDF7FAF900000048704785
:102DE000A4010020491058BFC1F140415B1058BFF9
:102DF000C3F140438B42EFF30080704710F0004274
:102E000048BF4042B0FA80F310FA03F10AD0C3F190
:102E10001D0303F580634FEA415002EB035202EBBE
:102E2000D12170474FF000007047000051EA030CB9
:102E300017D41CF5801F58BFBCF5801F00F1068019
:102E4000994218BF704708BF9042704707D711F5E5
:102E5000801F58BF13F5801F19D4994270478942CB
:102E600070471CF5801F08D5BCF5801FF7D58B4235
:102E700018BF704708BF824270474FF4001C1CEB1C
:102E8000410F38BF1CEB430F01D28B42704770B526
:102E900000F008F8922449004FF000514FF08053A1
:102EA000FFF7A0BF0EF1020E2EF0030E5EF8046BCA
:102EB000364205D4012A43EB030515F5001F12D84D
:102EC000012841EB010C1CF5001F0CD80ED14FEA74
:102ED000D17C15F5001F0CEB4C0C0CF1020C08BF5B
:102EE0004CEBD37C04E04FF0080C01E04FEAD37CBC
:102EF0000CEB4C0526FA05F606F00706B6F1040CB5
:102F000006D20EEB860CBDE870404CF0010C604719
:102F1000DFE80CF0090B02024FF000414FF0000017
:102F2000A1F5002170BD19461046012851EB01049E
:102F300018BFD4F5001484BF002001F0004170BD1B
:102F400053EA010C17D41CF5801F58BFBCF5801F35
:102F500000F106808B4218BF704708BF824270475D
:102F600007D713F5801F58BF11F5801F19D48B4266
:102F700070479B4270471CF5801F08D5BCF5801F29
:102F8000F7D5994218BF704708BF904270474FF479
:102F9000001C1CEB430F38BF1CEB410F01D29942C0
:102FA00070470FB40CBC03BCFFF771BF41504453D2
:102FB0002D3939393630205445535400DC2F000860
:102FC00000000020580000006C01000834300008A8
:102FD00058000020B00700008801000800A24A0441
:102FE00000000000000000000102030406070809B9
:102FF00001000000000000000000000000000000D0
:1030000000000000000000000000000000000000C0
:1030100000000000000000000000000000000000B0
:10302000000000000102030401020304060708096E
:043030000204060888
:0400000508000131BD
:00000001FF
